S0110000537072696E742031302E7372656312
S11300000C9451010C94E0010C946E010C946E015B
S11300100C946E010C9400020C946E010C946E010D
S11300200C946E010C946E010C946E010C946E0190
S11300300C946E010C946E010C9470010C946E017E
S11300400C946E010C946E010C946E010C946E0170
S11300500C946E010C946E010C946E010C946E0160
S11300600C946E010C946E0108000000BE922449A9
S1130070123EABAAAA2ABECDCCCC4C3E00000080D6
S1130080BEABAAAAAA3E00000000BF000000803F49
S11300900000000000084178D3BB4387D1133D1909
S11300A00E3CC3BD4282AD2B3E68EC8276BED98F36
S11300B0E1A93E4C80EFFFBE01C4FF7F3F0000007A
S11300C00000000000000000005F000000070007BF
S11300D000147F147F14242A7F2A122313086462D5
S11300E036495522500005030000001C224100003F
S11300F041221C0014083E081408083E0808005059
S1130100300000080808080800606000002010089B
S113011004023E5149453E00427F4000426151493C
S1130120462141454B311814127F10274545453966
S11301303C4A4949300171090503364949493606A3
S11301404949291E003636000000563600000814BE
S11301502241001414141414004122140802015101
S11301600906324979413E7E1111117E7F49494980
S1130170363E414141227F4141221C7F4949494148
S11301807F090909013E4149497A7F0808087F002F
S1130190417F41002040413F017F081422417F40BC
S11301A04040407F020C027F7F0408107F3E4141A3
S11301B0413E7F090909063E4151215E7F09192903
S11301C046464949493101017F01013F4040403FD2
S11301D01F2040201F3F4038403F6314081463072A
S11301E0087008076151494543007F4141000204FA
S11301F00810200041417F000402010204404040F5
S11302004040000102040020545454787F48444480
S1130210383844444420384444487F3854545418AB
S1130220087E0901020C5252523E7F0804047800F1
S1130230447D40002040443D007F1028440000419C
S11302407F40007C041804787C0804047838444413
S113025044387C14141408081414187C7C0804040E
S1130260084854545420043F4440203C4040207CDF
S11302701C2040201C3C4030403C44281028440CA6
S11302805050503C4464544C440008364100000033
S11302907F00000041360800100808100800000024
S11302A0000011241FBECFEFD8E0DEBFCDBF11E0A8
S11302B0A0E0B1E0EEE6F8E202C005900D92A434AD
S11302C0B107D9F723E0A4E4B1E001C01D92A5353C
S11302D0B207E1F70E94C2090C9435140C94000093
S11302E01F920F9200905F000F9211242F933F935F
S11302F04F935F936F937F938F939F93AF93BF932A
S1130300EF93FF93CF93DF93CDB7DEB7809147018F
S113031090914801A0914901B0914A010196A11D13
S1130320B11D8093470190934801A0934901B09374
S11303304A018091470190914801A0914901B091EF
S11303404A0128E833E140E050E0BC01CD010E94BD
S1130350FB10DC01CB01892B8A2B8B2B19F481E058
S1130360809345018091470190914801A0914901F2
S1130370B0914A0124EF31E040E050E0BC01CD01EE
S11303800E94FB10DC01CB01892B8A2B8B2B19F4E7
S113039081E0809346010000DF91CF91FF91EF91BE
S11303A0BF91AF919F918F917F916F915F914F9189
S11303B03F912F910F9000925F000F901F9018951E
S11303C01F920F9200905F000F9211248F939F93BE
S11303D0CF93DF93CDB7DEB780914B0190914C0161
S11303E0019690934C0180934B010000DF91CF91D3
S11303F09F918F910F9000925F000F901F9018951E
S11304001F920F9200905F000F921124CF92DF92FF
S1130410EF92FF920F931F932F933F934F935F930A
S11304206F937F938F939F93AF93BF93EF93FF93B8
S1130430CF93DF93CDB7DEB789E290E0FC018081F2
S1130440882F90E082709927892BD1F48091030141
S113045090910401893B9B4098F480910101909113
S113046002018838934160F088EE93E09093020192
S11304708093010188E893E1909304018093030140
S113048089E290E0FC018081882F90E080719927B7
S1130490892B09F057C080914401882F90E0813066
S11304A09105A9F0823091051CF4892B39F04AC0DA
S11304B082309105F1F0039771F144C090910001ED
S11304C081E0992309F080E0809300013BC0809192
S11304D001019091020181349F4178F580910101DD
S11304E09091020188519C4F9093020180930101E5
S11304F024C0809103019091040181349F41F8F458
S1130500809103019091040188519C4F90930401C0
S11305108093030114C080910501909106018134F8
S11305209F4178F4809105019091060188519C4F78
S1130530909306018093050104C0000003C00000ED
S113054001C0000089E290E0FC018081882F90E0E6
S113055080729927892B09F057C080914401882F14
S113056090E081309105A9F0823091051CF4892B2B
S113057039F04AC082309105F1F0039771F144C01B
S11305809091000181E0992309F080E080930001BB
S11305903BC08091010190910201803D974078F128
S11305A08091010190910201885E93409093020131
S11305B08093010124C08091030190910401803D46
S11305C09740F8F08091030190910401885E934074
S11305D0909304018093030114C0809105019091CC
S11305E00601803D974078F08091050190910601C5
S11305F0885E9340909306018093050104C0000037
S113060003C0000001C0000089E290E0FC01808189
S1130610882F90E080749927892B61F4809144019C
S1130620833030F4809144018F5F8093440102C091
S113063010924401C0900001D0900101E0900201A9
S1130640F09003010091040110910501209106012D
S113065030910701409108015091090160910A010C
S113066070910B0180910C010E94C3050000DF9181
S1130670CF91FF91EF91BF91AF919F918F917F9116
S11306806F915F914F913F912F911F910F91FF9027
S1130690EF90DF90CF900F9000925F000F901F902B
S11306A01895CF93DF931F92CDB7DEB789830000EF
S11306B080EC90E0FC018081882F90E08072992783
S11306C0892BB1F386EC90E02981FC0120830000A2
S11306D00F90DF91CF9108958F929F92AF92BF9226
S11306E0CF92DF92EF92FF920F931F93CF93DF93FA
S11306F0CDB7DEB7A3970FB6F894DEBF0FBECDBF5C
S1130700CB8ADC8AED8AFE8A0F8B188F298F3A8F69
S11307104B8F5C8F6D8F7E8F8F8F88A299A2AAA238
S1130720BBA222E1EDE0F1E0CE010196DC010190F3
S11307300D922A95E1F785E290E020914D01022E79
S1130740000C330B220F331FAE014F5F5F4F240F9A
S1130750351FF90120813181FC01208380914D01F5
S1130760082E000C990B880F991F9E012F5F3F4F95
S1130770820F931FFC018081918188279170892BBE
S113078051F08BE290E02BE230E0F9012081206807
S1130790FC01208309C08BE290E02BE230E0F901F8
S11307A020812F77FC01208380914D0184300CF04F
S11307B042C080914E0190914F01A0915001B0919F
S11307C0510128A139A14AA15BA1281B390B4A0B6D
S11307D05B0B8C899D899695879596958795CC0119
S11307E0A0E0B0E0281739074A075B0708F4C1C046
S11307F080914D018F5F80934D018C899D899695E1
S11308008795969587959C0140E050E080914E0134
S113081090914F01A0915001B0915101820F931F0B
S1130820A41FB51F80934E0190934F01A0935001D4
S1130830B09351019EC080914D018530D4F58091D3
S11308404E0190914F01A0915001B091510128A106
S113085039A14AA15BA1281B390B4A0B5B0B888D7C
S1130860998DCC01A0E0B0E0281739074A075B074F
S113087008F47FC080914D018F5F80934D01888D76
S1130880998D9C0140E050E080914E0190914F0180
S1130890A0915001B0915101820F931FA41FB51F65
S11308A080934E0190934F01A0935001B093510156
S11308B060C080914D0189300CF041C080914E019F
S11308C090914F01A0915001B091510128A139A1FB
S11308D04AA15BA1281B390B4A0B5B0B8E899F89AC
S11308E09695879596958795CC01A0E0B0E028175A
S11308F039074A075B07E8F180914D018F5F8093C8
S11309004D018E899F8996958795969587959C012B
S113091040E050E080914E0190914F01A091500130
S1130920B0915101820F931FA41FB51F80934E01F4
S113093090934F01A0935001B09351011AC01092AB
S11309404D0188A199A1AAA1BBA180934E019093C6
S11309504F01A0935001B093510188A199A1AAA17C
S1130960BBA18093520190935301A0935401B0937F
S113097055018091560184300CF04FC08091520192
S113098090915301A0915401B091550128A139A12E
S11309904AA15BA1281B390B4A0B5B0B6C897D892F
S11309A0888D998D860F971F96958795969587952F
S11309B0CC01A0E0B0E0281739074A075B0708F428
S11309C0CEC0809156018F5F809356012C893D895A
S11309D0888D998D820F931F969587959695879507
S11309E09C0140E050E08091520190915301A0910C
S11309F05401B0915501820F931FA41FB51F80931A
S1130A00520190935301A0935401B09355018091E6
S1130A105601805D0E945103A2C080915601883026
S1130A200CF053C08091520190915301A091540154
S1130A30B091550128A139A14AA15BA1281B390B0A
S1130A404A0B5B0B6E897F89888D998DFB01E81BAE
S1130A50F90BCF019695879596958795CC01A0E0E3
S1130A60B0E0281739074A075B0708F478C080917B
S1130A7056018F5F809356012E893F89888D998D09
S1130A80A901481B590BCA01969587959695879598
S1130A909C0140E050E08091520190915301A0915B
S1130AA05401B0915501820F931FA41FB51F809369
S1130AB0520190935301A0935401B0935501809136
S1130AC05601805D0E9451034AC0809156018930CD
S1130AD00CF03EC08091520190915301A0915401B9
S1130AE0B091550128A139A14AA15BA1281B390B5A
S1130AF04A0B5B0B888D998DCC01A0E0B0E02817E0
S1130B0039074A075B0758F1809156018F5F80933C
S1130B105601888D998D9C0140E050E080915201EE
S1130B2090915301A0915401B0915501820F931FEC
S1130B30A41FB51F8093520190935301A0935401B5
S1130B40B093550180915601805D0E94510307C006
S1130B501092560180915601805D0E94510300005D
S1130B60A3960FB6F894DEBF0FBECDBFDF91CF9131
S1130B701F910F91FF90EF90DF90CF90BF90AF90B7
S1130B809F908F900895CF92DF92EF92FF920F93F0
S1130B901F93CF93DF93CDB7DEB7A3970FB6F89427
S1130BA0DEBF0FBECDBFCF8AD88EE98EFA8E0B8FF3
S1130BB01C8F2D8F3E8F4F8F58A369A37AA38BA3CD
S1130BC08F89882311F081E401C08DE489831A821E
S1130BD0888D998D96958795969587959695879501
S1130BE09C01A5ECB0E20E943C11929582958F7015
S1130BF089279F708927292F2F938F938FE191E065
S1130C00892F8F938FE191E08F93CE010396292F43
S1130C102F938F930E944B110F900F900F900F9072
S1130C200F900F908A8D9B8D9695879596958795B5
S1130C30969587959C01A5ECB0E20E943C11929593
S1130C4082958F7089279F708927292F2F938F93DF
S1130C508FE191E0892F8F938FE191E08F93CE0103
S1130C600596292F2F938F930E944B110F900F906D
S1130C700F900F900F900F908C8D9D8D969587956A
S1130C8096958795969587959C01A5ECB0E20E9470
S1130C903C11929582958F7089279F708927292FFF
S1130CA02F938F938FE191E0892F8F938FE191E0C0
S1130CB08F93CE010796292F2F938F930E944B1168
S1130CC00F900F900F900F900F900F908E8D9F8D1F
S1130CD0292F2F938F938FE191E0892F8F938FE1A9
S1130CE091E08F93CE010996292F2F938F930E9421
S1130CF04B110F900F900F900F900F900F9088A1B1
S1130D0099A1292F2F938F938FE191E0892F8F93AE
S1130D108FE191E08F93CE010D96292F2F938F931E
S1130D200E944B110F900F900F900F900F900F9007
S1130D308AA19BA1292F2F938F938FE191E0892F73
S1130D408F938FE191E08F93CE014296292F2F93B9
S1130D508F930E944B110F900F900F900F900F9054
S1130D600F900E94A80C65E080E00E94FE0D61E0F7
S1130D7082E291E00E94DB0D65E08EE10E94FE0DAF
S1130D8061E0CE0101960E94DB0D6FE080E00E94DD
S1130D90FE0D61E087E291E00E94DB0D6FE08EE1E1
S1130DA00E94FE0DCE01039661E00E94DB0D69E115
S1130DB080E00E94FE0D61E08CE291E00E94DB0D78
S1130DC069E18EE10E94FE0DCE01059661E00E946C
S1130DD0DB0D63E280E00E94FE0D61E081E391E0BF
S1130DE00E94DB0D63E28EE10E94FE0DCE010796A8
S1130DF061E00E94DB0D80914401880F982F990FC8
S1130E00990F890F8B5F682F86E20E94FE0D61E0C7
S1130E1086E391E00E94DB0D69E18DE20E94FE0D04
S1130E20CE01099661E00E94DB0D69E182E40E9433
S1130E30FE0D61E088E391E00E94DB0D6FE08DE23E
S1130E400E94FE0DCE010D9661E00E94DB0D6FE065
S1130E5082E40E94FE0D61E08CE391E00E94DB0DD0
S1130E6063E28DE20E94FE0DCE01429661E00E9493
S1130E70DB0D63E282E40E94FE0D61E080E491E018
S1130E800E94DB0D0E94110E0000A3960FB6F89489
S1130E90DEBF0FBECDBFDF91CF911F910F91FF90A9
S1130EA0EF90DF90CF900895CF93DF9300D0CDB72C
S1130EB0DEB79A83898389819A81FC0180818823A2
S1130EC009F4C0C089819A81FC01108280914B0190
S1130ED090914C01909358018093570110924C01CA
S1130EE010924B012091570130915801C901880F8C
S1130EF0991F820F931F880F991F880F991F909332
S1130F0008018093070180910001882309F49AC0A5
S1130F108091070190910801CC01A0E0B0E0BC01F0
S1130F20CD010E94460FDC01CB012AE939E945E8ED
S1130F3051E4BC01CD010E944D10DC01CB01BC0188
S1130F40CD010E94170FDC01CB01969587959695EC
S1130F508795969587959C01A5ECB0E20E943C117B
S1130F60929582958F7089279F708927AC014F5F76
S1130F705F4F28EE33E0429FC001439F900D529F84
S1130F80900D11249093020180930101809101013D
S1130F90909102018932934230F088E293E2909377
S1130FA00201809301018091070190910801CC0115
S1130FB0A0E0B0E0BC01CD010E94460FDC01CB01F2
S1130FC02AE939E945E851E4BC01CD010E944D10FC
S1130FD0DC01CB01BC01CD010E94170FDC01CB0168
S1130FE09695879596958795969587959C01A5ECFA
S1130FF0B0E20E943C11AC01529542954F704527D6
S11310005F70452728EE33E0429FC001439F900D57
S1131010529F900D112428E233E2A901481B590B79
S1131020CA0190930401809303018091030190917C
S1131030040181309D4730F088EE93E090930401E1
S11310408093030100000F900F90DF91CF910895DA
S1131050CF92DF92EF92FF920F931F93CF93DF9380
S1131060CDB7DEB76E970FB6F894DEBF0FBECDBF17
S11310709E8F8D8F80E098E3ACE1B6E489839A83F8
S1131080AB83BC838DE896EDA0E7BAE38D839E83A2
S1131090AF83B88784EB98E9AAE8B9E389879A878C
S11310A0AB87BC8781E29CE8ADE3B0E38D879E8784
S11310B0AF87B88B8D8D9E8DFC018081882309F4C8
S11310C031C18091590190915A01009721F0019703
S11310D009F46CC013C188E790E0FC018081918120
S11310E09C0140E050E088E19CE9AFE0B0E0BC0145
S11310F0CD010E941D11DA01C901885E93409093CD
S11311000A01809309018091090190910A018D32AD
S1131110914050F489E290E0FC018081882F90E0B6
S113112081709927892B69F08091090190910A01B6
S11311308D32914060F48091070190910801892BD0
S113114031F084EB90E02AEFFC01208329C08091E8
S1131150090190910A018D32914050F489E290E0A6
S1131160FC018081882F90E081709927892B69F494
S11311708091090190910A018D32914060F480912F
S1131180070190910801892B31F084EB90E020E570
S1131190FC01208305C084EB90E021E0FC01208366
S11311A08CE790E021E4FC012083A8C088E790E06C
S11311B0FC0180819181CC01A0E0B0E0BC01CD01B3
S11311C00E94460FDC01CB019C01AD0160E070EC94
S11311D08FE794E40E94A50EDC01CB0120E030E00F
S11311E040E85FE3BC01CD010E94330EDC01CB017A
S11311F029813A814B815C81BC01CD010E944D1053
S1131200DC01CB01898B9A8BAB8BBC8B89899A8946
S1131210AB89BC89BC01CD010E940510DC01CB0166
S11312208D8B9E8BAF8BB88F2D893E894F89588DBE
S113123069857A858B859C850E944D10DC01CB01E4
S11312402D813E814F815885BC01CD010E94340E11
S1131250DC01CB016C017D012D893E894F89588DBC
S11312606D857E858F8598890E944D10DC01CB01A8
S11312702D893E894F89588DBC01CD010E944D10A6
S1131280DC01CB012D893E894F89588DBC01CD01EC
S11312900E944D10DC01CB019C01AD01C701B601D8
S11312A00E94340EDC01CB019C01AD0160E070E0D2
S11312B080E89FE30E94A50EDC01CB01898F9A8F01
S11312C0AB8FBC8F20E030E041E353E4698D7A8D2D
S11312D08B8D9C8D0E94330EDC01CB01BC01CD01B2
S11312E00E94170FDC01CB0190930C0180930B013A
S11312F08CE790E020E4FC012083000080915901F8
S113130090915A01892B51F48091590190915A017D
S1131310019690935A018093590104C010925A0186
S1131320109259018D8D9E8DFC011082C090000198
S1131330D0900101E0900201F090030100910401BA
S11313401091050120910601309107014091080197
S11313505091090160910A0170910B0180910C0177
S11313600E94C30500006E960FB6F894DEBF0FBE50
S1131370CDBFDF91CF911F910F91FF90EF90DF9040
S1131380CF9008958F929F92AF92BF92CF92DF92A7
S1131390EF92FF920F931F93CF93DF93CDB7DEB7F6
S11313A084E290E02FEFFC0120838AE290E028E8B9
S11313B0FC01208387E290E02EEBFC0120838BE28A
S11313C090E027E7FC01208388E290E028E230E007
S11313D0F90120812064FC01208385EC90E0FC016C
S11313E0108284EC90E02FEFFC01208381EC90E0EC
S11313F028E9FC01208382EC90E026E0FC012083B4
S113140089E690E02AE0FC0120838DE390E023E06C
S1131410FC01208388E690E024E0FC0120838DE633
S113142090E022E7FC01208384E490E022E0FC01C8
S1131430208385E490E023E0FC01208387E490E0AE
S113144029EFFC0120838EE690E022E0FC0120835A
S113145080EB90E023EAFC01208381EB90E023E021
S1131460FC0120838CE790E020E4FC0120838AE7E0
S113147090E027EEFC0120838BE790E0FC011082D2
S11314808EE790E021E0FC0120830E94280BC090AD
S11314900001D0900101E0900201F090030100915D
S11314A0040110910501209106013091070140913A
S11314B008015091090160910A0170910B0180911A
S11314C00C010E94C30578948091470190914801D2
S11314D0A0914901B0914A014C015D01C090000105
S11314E0D0900101E0900201F09003010091040109
S11314F010910501209106013091070140910801E6
S11315005091090160910A0170910B0180910C01C5
S11315100E946C0385E491E00E94540786E491E004
S11315200E942808D1CF1F93CF93DF9300D0CDB76B
S1131530DEB789836A8388E290E028E230E0F9012B
S113154020812B7FFC0120838A81882351F088E24B
S113155090E028E230E0F90120812061FC01208341
S113156009C088E290E028E230E0F90120812F7E72
S1131570FC01208310E03CC08981882F90E0212F5A
S113158030E047E050E0BA01621B730B9B0102C0DC
S1131590959587952A95E2F781709927892B51F0C3
S11315A088E290E028E230E0F90120812062FC0129
S11315B0208309C088E290E028E230E0F90120812C
S11315C02F7DFC01208388E290E028E230E0F901DD
S11315D020812064FC01208388E290E028E230E04E
S11315E0F90120812F7BFC012083812F11E0180F4A
S11315F0183010F288E290E028E230E0F90120810E
S11316002460FC01208300000F900F90DF91CF91A4
S11316101F910895CF93DF931F92CDB7DEB78983CF
S113162060E089810E94930A00000F90DF91CF91BE
S11316300895CF93DF931F92CDB7DEB7898361E01E
S113164089810E94930A00000F90DF91CF91089541
S11316500F931F93CF93DF93CDB7DEB76C970FB67D
S1131660F894DEBF0FBECDBF87E290E027E230E002
S1131670F90120812460FC01208387E290E027E2C5
S113168030E0F90120812860FC01208387E290E0AA
S113169027E230E0F90120812061FC01208387E208
S11316A090E027E230E0F90120812062FC012083F0
S11316B087E290E027E230E0F90120812064FC0118
S11316C0208388E290E028E230E0F901208128605C
S11316D0FC01208388E290E028E230E0F9012081D7
S11316E02460FC01208380E090E0A0E2B1E48983DF
S11316F09A83AB83BC8320E030E04AE753E46981FA
S11317007A818B819C810E944D10DC01CB018B8BF3
S11317109C8BAD8BBE8B20E030E040E85FE36B89AF
S11317207C898D899E890E94A00E88232CF481E0F7
S113173090E0988F8F8B3FC020E03FEF4FE757E456
S11317406B897C898D899E890E94F80F18164CF547
S113175020E030E040E251E469817A818B819C8110
S11317600E944D10DC01CB01BC01CD010E94170F7A
S1131770DC01CB01988F8F8B0FC089E190E09A8FA9
S1131780898F898D9A8D0197F1F79A8F898F8F8927
S1131790988D0197988F8F8B8F89988D892B69F7F6
S11317A014C06B897C898D899E890E94170FDC0186
S11317B0CB01988F8F8B8F89988D9C8F8B8F8B8D7E
S11317C09C8D0197F1F79C8F8B8F88E290E028E243
S11317D030E0F9012081277FFC01208380E090E044
S11317E0ACE8B2E48D839E83AF83B88720E030E019
S11317F04AE753E46D817E818F8198850E944D1064
S1131800DC01CB0189879A87AB87BC8720E030E075
S113181040E85FE369857A858B859C850E94A00EEC
S113182088232CF481E090E09E878D873FC020E0E0
S11318303FEF4FE757E469857A858B859C850E9445
S1131840F80F18164CF520E030E040E251E46D81C9
S11318507E818F8198850E944D10DC01CB01BC01F3
S1131860CD010E94170FDC01CB019E878D870FC02D
S113187089E190E0988B8F878F8598890197F1F79C
S1131880988B8F878D859E8501979E878D878D8503
S11318909E85892B69F714C069857A858B859C851B
S11318A00E94170FDC01CB019E878D878D859E8555
S11318B09A8B898B89899A890197F1F79A8B898BFD
S11318C088E290E028E230E0F90120812860FC0100
S11318D0208388E290E028E230E0F90120812B7F28
S11318E0FC01208381E20E940A0B83E10E940A0B1F
S11318F086E00E940A0B82EC0E940A0B80E20E949E
S11319000A0B89E00E940A0B80E80E940A0B80E41B
S11319100E940A0B00E010E005C080E00E94190B51
S11319200F5F1F4F083FF1E01F07B8F388E00E94E4
S11319300A0B8CE00E940A0B00006C960FB6F89418
S1131940DEBF0FBECDBFDF91CF911F910F910895E0
S11319500F931F93CF93DF93CDB7DEB780E80E9438
S11319600A0B80E40E940A0B109253031092540352
S113197000E010E007C0C801855A9E4FFC011082A8
S11319800F5F1F4F083FF1E01F07A8F30000DF912E
S1131990CF911F910F910895CF93DF9300D000D082
S11319A01F92CDB7DEB78B836C834D838C81869574
S11319B086958695882F90E044E5489F9001499F3D
S11319C0300D11248B81882F90E0820F931F855A4C
S11319D09E4F9A8389838D818823C9F089819A8156
S11319E0FC018081482F8C81882F90E09C01277016
S11319F0332781E090E002C0880F991F2A95E2F70F
S1131A00842B282F89819A81FC01208319C0898124
S1131A109A81FC018081482F8C81882F90E09C0161
S1131A202770332781E090E002C0880F991F2A9520
S1131A30E2F780958423282F89819A81FC012083F1
S1131A4000000F900F900F900F900F90DF91CF91A7
S1131A5008950F931F93CF93DF9300D000D01F926C
S1131A60CDB7DEB78C836D8310E065C000E04EC057
S1131A708C81882F90E09C01205231099D81812F17
S1131A80692F0E94EF10482F50E0C901880F991F59
S1131A90880F991F820F931F840F951F8E539F4F9A
S1131AA09A83898389819A81FC0184918B838B81B8
S1131AB0282F30E09D81802F692F0E94EF10882FFE
S1131AC090E0A90102C0559547958A95E2F7CA01AD
S1131AD081709927892B61F080915403982F900F7E
S1131AE080915303810F41E0692F0E94CC0C0BC0FD
S1131AF080915403982F900F80915303810F40E0FD
S1131B00692F0E94CC0C802F01E0080F402F50E079
S1131B108D81282F30E0C901880F991F880F991FE4
S1131B20880F991F821B930B481759070CF4A0CFF9
S1131B30812F11E0180F412F50E08D81282F30E0C4
S1131B40C901880F991F880F991F820F931F481787
S1131B5059070CF48BCF209153039D81892F880F53
S1131B60880F890F820F8F5F8093530380915303F3
S1131B70843570F010925303209154039D81892F72
S1131B80880F880F880F891B820F8F5F80935403FF
S1131B9080915403803320F0109253031092540325
S1131BA000000F900F900F900F900F90DF91CF9146
S1131BB01F910F910895CF93DF9300D01F92CDB75B
S1131BC0DEB79A8389836B830CC089819A819C01D7
S1131BD02F5F3F4F3A832983FC0180816B810E94F0
S1131BE0290D89819A81FC018081882371F7000085
S1131BF00F900F900F90DF91CF910895CF93DF93C3
S1131C0000D0CDB7DEB789836A838981809353037B
S1131C108A818093540300000F900F90DF91CF913D
S1131C2008950F931F93CF93DF93CDB7DEB780E86A
S1131C300E940A0B80E40E940A0B00E010E009C035
S1131C40C801855A9E4FFC0180810E94190B0F5FC9
S1131C501F4F083FF1E01F0798F30000DF91CF9179
S1131C601F910F9108955058BB27AA270E944B0E2D
S1131C700C94BE0F0E94B00F38F00E94B70F20F0F2
S1131C8039F49F3F19F426F40C94AD0F0EF4E0954B
S1131C90E7FB0C94A70FE92F0E94CF0F58F3BA1754
S1131CA0620773078407950720F079F4A6F50C946E
S1131CB0F10F0EF4E0950B2EBA2FA02D0B01B901F4
S1131CC090010C01CA01A0011124FF27591B99F0AE
S1131CD0593F50F4503E68F11A16F040A22F232FBA
S1131CE0342F4427585FF3CF469537952795A7950A
S1131CF0F0405395C9F77EF41F16BA0B620B730BB1
S1131D00840BBAF09150A1F0FF0FBB1F661F771F21
S1131D10881FC2F70EC0BA0F621F731F841F48F4D6
S1131D20879577956795B795F7959E3F08F0B0CF5F
S1131D309395880F08F09927EE0F97958795089546
S1131D400E94830F08F481E008950E94B90E0C9458
S1131D50BE0F0E94B70F58F00E94B00F40F029F454
S1131D605F3F29F00C94A70F51110C94F20F0C94BF
S1131D70AD0F0E94CF0F68F39923B1F3552391F36C
S1131D80951B550BBB27AA2762177307840738F0E6
S1131D909F5F5F4F220F331F441FAA1FA9F335D043
S1131DA00E2E3AF0E0E832D091505040E695001CF7
S1131DB0CAF72BD0FE2F29D0660F771F881FBB1FB1
S1131DC0261737074807AB07B0E809F0BB0B802D8F
S1131DD0BF01FF2793585F4F3AF09E3F510578F0BB
S1131DE00C94A70F0C94F20F5F3FE4F3983ED4F3E6
S1131DF0869577956795B795F7959F5FC9F7880F8F
S1131E00911D9695879597F90895E1E0660F771FE0
S1131E10881FBB1F621773078407BA0720F0621B71
S1131E20730B840BBA0BEE1F88F7E09508950E949C
S1131E30D70F88F09F5798F0B92F9927B751B0F072
S1131E40E1F0660F771F881F991F1AF0BA95C9F73A
S1131E5014C0B13091F00E94F10FB1E008950C94D8
S1131E60F10F672F782F8827B85F39F0B93FCCF38B
S1131E70869577956795B395D9F73EF490958095B7
S1131E80709561957F4F8F4F9F4F0895E89409C0D7
S1131E9097FB3EF490958095709561957F4F8F4F99
S1131EA09F4F9923A9F0F92F96E9BB279395F695AF
S1131EB0879577956795B795F111F8CFFAF4BB0F2D
S1131EC011F460FF1BC06F5F7F4F8F4F9F4F16C091
S1131ED0882311F096E911C0772321F09EE8872F1B
S1131EE0762F05C0662371F096E8862F70E060E0D7
S1131EF02AF09A95660F771F881FDAF7880F969550
S1131F00879597F90895990F0008550FAA0BE0E8F3
S1131F10FEEF16161706E807F907C0F012161306A7
S1131F20E407F50798F0621B730B840B950B39F4E7
S1131F300A2661F0232B242B252B21F408950A264D
S1131F4009F4A140A6958FEF811D811D089597F98D
S1131F509F6780E870E060E008959FEF80EC08954B
S1131F6000240A9416161706180609060895002474
S1131F700A9412161306140605060895092E0394EE
S1131F80000C11F4882352F0BB0F40F4BF2B11F462
S1131F9060FF04C06F5F7F4F8F4F9F4F089557FDC1
S1131FA09058440F551F59F05F3F71F04795880FC3
S1131FB097FB991F61F09F3F79F08795089512165A
S1131FC013061406551FF2CF4695F1DF08C0161606
S1131FD017061806991FF1CF8695710561050894B7
S1131FE00895E894BB2766277727CB0197F90895CE
S1131FF00E94830F08F48FEF089516F00C94BA1022
S11320000C94AD0F68940C94A70F0E94D70FA8F3FB
S11320109923C1F3AEF3DF93CF931F930F93FF92F2
S1132020C92FDD2788232AF02197660F771F881F81
S1132030DAF720E030E040E85FEB9FE3883920F0F6
S1132040803E38F021968F770E94340EE8E6F0E067
S113205004C00E94340EE5E9F0E00E94C8108B0130
S1132060BE01EC01FB2E6F5771097595771F880B24
S1132070990B0E94480F28E132E741E35FE30E9495
S11320806010AF2D9801AE01FF900F911F91CF9179
S1132090DF910E944B0E0C94BE0F0E9460100C94B2
S11320A0BE0F0E94B00F38F00E94B70F20F09523A6
S11320B011F00C94A70F0C94AD0F11240C94F20F93
S11320C00E94CF0F70F3959FC1F3950F50E0551FF9
S11320D0629FF001729FBB27F00DB11D639FAA2779
S11320E0F00DB11DAA1F649F6627B00DA11D661FC8
S11320F0829F2227B00DA11D621F739FB00DA11DE9
S1132100621F839FA00D611D221F749F3327A00DA2
S1132110611D231F849F600D211D822F762F6A2F3E
S113212011249F5750409AF0F1F088234AF0EE0FA3
S1132130FF1FBB1F661F771F881F91505040A9F7D0
S11321409E3F510580F00C94A70F0C94F20F5F3F53
S1132150E4F3983ED4F3869577956795B795F7950C
S1132160E7959F5FC1F7FE2B880F911D9695879584
S113217097F908959F3F31F0915020F48795779512
S11321806795B795880F911D9695879597F908954A
S1132190DF93CF931F930F93FF92EF92DF927B0114
S11321A08C01689406C0DA2EEF010E946010FE01D3
S11321B0E894A5912591359145915591A6F3EF01A8
S11321C00E944B0EFE019701A801DA9469F7DF9093
S11321D0EF90FF900F911F91CF91DF910895991B7C
S11321E079E004C0991F961708F0961B881F7A950A
S11321F0C9F780950895A1E21A2EAA1BBB1BFD0105
S11322000DC0AA1FBB1FEE1FFF1FA217B307E407D1
S1132210F50720F0A21BB30BE40BF50B661F771F29
S1132220881F991F1A9469F7609570958095909509
S11322309B01AC01BD01CF010895052E97FB1EF44F
S113224000940E94341157FD07D00E94FB1007FC34
S113225003D04EF40C94341150954095309521954B
S11322603F4F4F4F5F4F08959095809570956195BE
S11322707F4F8F4F9F4F0895A29FB001B39FC0011E
S1132280A39F700D811D1124911DB29F700D811D9E
S11322901124911D0895AEE0B0E0E1E5F1E10C9464
S11322A00C140D891E8986E08C831A8309838FEFB1
S11322B09FE79E838D83AE01475E5F4F6F89788D64
S11322C0CE0101960E946D11EF81F885E00FF11F98
S11322D010822E96E4E00C942814ABE0B0E0E3E71F
S11322E0F1E10C94FE136C017B018A01FC0117825D
S11322F01682838181FFCCC1CE0101963C01F60197
S11323009381F70193FD859193FF81917F01882348
S113231009F4BAC1853239F493FD859193FF819113
S11323207F01853229F4B60190E00E946413E7CF5F
S1132330912C212C312CFFE1F315D8F08B3279F05C
S113234038F4803279F08332A1F4232D20611DC04A
S11323508D3261F0803369F4232D216016C0832D02
S11323608260382EE32DE4603E2E2AC0F32DF860FF
S11323701DC037FC2DC020ED280F2A3040F08E32CE
S1132380B9F436FC81C1232D2064322E19C036FEE7
S113239006C08AE0989E200D1124922E11C0EAE016
S11323A02E9E200D1124222EF32DF0623F2E08C004
S11323B08C3621F4832D8068382E02C0883641F48F
S11323C0F70193FD859193FF81917F018111B3CF33
S11323D0982F9F7D9554933028F40C5F1F4F9FE3F3
S11323E099830DC0833631F0833771F0833509F05A
S11323F059C021C0F801808189830E5F1F4F882452
S11324008394912C530113C02801F2E04F0E511C08
S1132410F801A080B18036FE03C0692D70E002C0CF
S11324206FEF7FEFC5010E9459134C018201F32D18
S1132430FF773F2E16C0280122E0420E511CF801FE
S1132440A080B18036FE03C0692D70E002C06FEF3A
S11324507FEFC5010E944E134C01F32DF0683F2E0F
S1132460820133FC1BC0822D90E088169906B0F4DB
S1132470B60180E290E00E9464132A94F4CFF5013F
S113248037FC859137FE81915F01B60190E00E948F
S1132490641321102A9421E0821A91088114910472
S11324A071F7E8C0843611F0893641F5F80137FE3A
S11324B007C060817181828193810C5F1F4F08C0C6
S11324C060817181072E000C880B990B0E5F1F4FE2
S11324D0F32DFF763F2E97FF09C090958095709558
S11324E061957F4F8F4F9F4FF0683F2E2AE030E079
S11324F0A3010E94A013882E861845C0853731F4A5
S1132500232D2F7EB22E2AE030E025C0932D997F13
S1132510B92E8F36C1F018F4883579F0B5C08037FC
S113252019F0883721F0B0C0E92FE061BE2EB4FE67
S11325300DC0FB2DF460BF2E09C034FE0AC0292F44
S11325402660B22E06C028E030E005C020E130E06D
S113255002C020E132E0F801B7FE07C0608171815A
S1132560828193810C5F1F4F06C06081718180E07E
S113257090E00E5F1F4FA3010E94A013882E8618BF
S1132580FB2DFF773F2E36FE0DC0232D2E7FA22E6E
S1132590891458F434FE0BC032FC09C0832D8E7E9E
S11325A0A82E05C0B82CA32C03C0B82C01C0B92C8C
S11325B0A4FE0FC0FE01E80DF11D8081803321F4DB
S11325C09A2D997EA92E09C0A2FE06C0B394B39495
S11325D004C08A2D867809F0B394A3FC11C0A0FE30
S11325E006C0B21488F4280C922C9B180EC0B214A6
S11325F060F4B60180E290E00E946413B394F7CFD4
S1132600B21418F42B1802C0982C212CA4FE10C06C
S1132610B60180E390E00E946413A2FE17C0A1FCFF
S113262003C088E790E002C088E590E0B6010CC0E2
S11326308A2D867859F0A1FE02C08BE201C080E2A7
S1132640A7FC8DE2B60190E00E946413891438F46B
S1132650B60180E390E00E9464139A94F7CF8A94C1
S1132660F301E80DF11D8081B60190E00E9464132E
S11326708110F5CF222009F442CEB60180E290E029
S11326800E9464132A94F6CFF6018681978102C0D2
S11326908FEF9FEF2B96E2E10C941A14FC01059046
S11326A0615070400110D8F7809590958E0F9F1F50
S11326B00895FC016150704001900110D8F7809595
S11326C090958E0F9F1F08950F931F93CF93DF93C1
S11326D0FB01238121FD03C08FEF9FEF2CC022FF5C
S11326E016C046815781248135814217530744F42B
S11326F0A081B1819D012F5F3F4F318320838C9353
S1132700268137812F5F3F4F3783268314C08B0187
S1132710EC01FB010084F185E02D0995892BE1F69C
S1132720D80116968D919C911797019617969C93B4
S11327308E931697CE01DF91CF911F910F9108953B
S1132740FA01AA27283051F1203181F1E8946F93DE
S11327506E7F6E5F7F4F8F4F9F4FAF4FB1E03ED084
S1132760B4E03CD0670F781F891F9A1FA11D680F22
S1132770791F8A1F911DA11D6A0F711D811D911D55
S1132780A11D20D009F468943F912AE0269F1124CA
S11327903019305D3193DEF6CF010895462F47702E
S11327A0405D4193B3E00FD0C9F7F6CF462F4F7089
S11327B0405D4A3318F0495D31FD4052419302D0E7
S11327C0A9F7EACFB4E0A69597958795779567958D
S11327D0BA95C9F700976105710508959B01AC018D
S11327E00A2E06945795479537952795BA95C9F7B4
S11327F0620F731F841F951FA01D08952F923F928F
S11328004F925F926F927F928F929F92AF92BF92FC
S1132810CF92DF92EF92FF920F931F93CF93DF93A8
S1132820CDB7DEB7CA1BDB0B0FB6F894DEBF0FBE05
S1132830CDBF09942A88398848885F846E847D8452
S11328408C849B84AA84B984C884DF80EE80FD8054
S11328500C811B81AA81B981CE0FD11D0FB6F894CA
S1112860DEBF0FBECDBFED010895F894FFCF8B
S113286E00E803D007E8030000000000000F000793
S113287E00030001000001F000700030001000257C
S113288E75004D6F646F00542E566400542E566DB1
S113289E00542E416D003C00632F6D006C75780062
S10728AEB04300002F
S9030000FC
